{
  "contractName": "Todo",
  "abi": [
    {
      "inputs": [],
      "payable": false,
      "stateMutability": "nonpayable",
      "type": "constructor"
    },
    {
      "constant": true,
      "inputs": [],
      "name": "todoCount",
      "outputs": [
        {
          "internalType": "uint256",
          "name": "",
          "type": "uint256"
        }
      ],
      "payable": false,
      "stateMutability": "view",
      "type": "function"
    },
    {
      "constant": true,
      "inputs": [
        {
          "internalType": "uint256",
          "name": "",
          "type": "uint256"
        }
      ],
      "name": "todos",
      "outputs": [
        {
          "internalType": "uint256",
          "name": "id",
          "type": "uint256"
        },
        {
          "internalType": "string",
          "name": "name",
          "type": "string"
        },
        {
          "internalType": "string",
          "name": "description",
          "type": "string"
        },
        {
          "internalType": "string",
          "name": "due_date",
          "type": "string"
        },
        {
          "internalType": "bool",
          "name": "completed",
          "type": "bool"
        }
      ],
      "payable": false,
      "stateMutability": "view",
      "type": "function"
    },
    {
      "constant": false,
      "inputs": [
        {
          "internalType": "string",
          "name": "_name",
          "type": "string"
        },
        {
          "internalType": "string",
          "name": "_description",
          "type": "string"
        },
        {
          "internalType": "string",
          "name": "due_date",
          "type": "string"
        }
      ],
      "name": "createTodo",
      "outputs": [],
      "payable": false,
      "stateMutability": "nonpayable",
      "type": "function"
    },
    {
      "constant": true,
      "inputs": [
        {
          "internalType": "uint256",
          "name": "_id",
          "type": "uint256"
        }
      ],
      "name": "getTodo",
      "outputs": [
        {
          "components": [
            {
              "internalType": "uint256",
              "name": "id",
              "type": "uint256"
            },
            {
              "internalType": "string",
              "name": "name",
              "type": "string"
            },
            {
              "internalType": "string",
              "name": "description",
              "type": "string"
            },
            {
              "internalType": "string",
              "name": "due_date",
              "type": "string"
            },
            {
              "internalType": "bool",
              "name": "completed",
              "type": "bool"
            }
          ],
          "internalType": "struct Todo.TodoItem",
          "name": "",
          "type": "tuple"
        }
      ],
      "payable": false,
      "stateMutability": "view",
      "type": "function"
    },
    {
      "constant": true,
      "inputs": [],
      "name": "getAllTodos",
      "outputs": [
        {
          "components": [
            {
              "internalType": "uint256",
              "name": "id",
              "type": "uint256"
            },
            {
              "internalType": "string",
              "name": "name",
              "type": "string"
            },
            {
              "internalType": "string",
              "name": "description",
              "type": "string"
            },
            {
              "internalType": "string",
              "name": "due_date",
              "type": "string"
            },
            {
              "internalType": "bool",
              "name": "completed",
              "type": "bool"
            }
          ],
          "internalType": "struct Todo.TodoItem[]",
          "name": "",
          "type": "tuple[]"
        }
      ],
      "payable": false,
      "stateMutability": "view",
      "type": "function"
    },
    {
      "constant": false,
      "inputs": [
        {
          "internalType": "uint256",
          "name": "_id",
          "type": "uint256"
        },
        {
          "internalType": "string",
          "name": "_name",
          "type": "string"
        },
        {
          "internalType": "string",
          "name": "_description",
          "type": "string"
        },
        {
          "internalType": "bool",
          "name": "_completed",
          "type": "bool"
        }
      ],
      "name": "updateTodo",
      "outputs": [],
      "payable": false,
      "stateMutability": "nonpayable",
      "type": "function"
    }
  ],
  "bytecode": "0x608060405260016000553480156200001657600080fd5b50620000c96040518060400160405280600881526020017f427579206d696c6b0000000000000000000000000000000000000000000000008152506040518060400160405280601781526020017f427579206d696c6b20666f72207468652066616d696c790000000000000000008152506040518060400160405280600a81526020017f323032302d30312d303100000000000000000000000000000000000000000000815250620000cf60201b60201c565b6200025e565b6040518060a00160405280600054815260200184815260200183815260200182815260200160001515815250600160008054815260200190815260200160002060008201518160000155602082015181600101908051906020019062000137929190620001af565b50604082015181600201908051906020019062000156929190620001af565b50606082015181600301908051906020019062000175929190620001af565b5060808201518160040160006101000a81548160ff0219169083151502179055509050506000808154809291906001019190505550505050565b828054600181600116156101000203166002900490600052602060002090601f016020900481019282601f10620001f257805160ff191683800117855562000223565b8280016001018555821562000223579182015b828111156200022257825182559160200191906001019062000205565b5b50905062000232919062000236565b5090565b6200025b91905b80821115620002575760008160009055506001016200023d565b5090565b90565b611374806200026e6000396000f3fe608060405234801561001057600080fd5b50600436106100625760003560e01c8063bc8bc2b414610067578063cacc70671461009b578063ce2bd5d5146100b7578063dd68afb6146100d5578063f92900ea14610105578063fe0dee1714610121575b600080fd5b610081600480360361007c9190810190610e19565b61013f565b604051610092959493929190611173565b60405180910390f35b6100b560048036036100b09190810190610d82565b61034a565b005b6100bf610424565b6040516100cc9190611114565b60405180910390f35b6100ef60048036036100ea9190810190610e19565b6106cb565b6040516100fc9190611136565b60405180910390f35b61011f600480360361011a9190810190610e42565b610903565b005b610129610bf7565b6040516101369190611158565b60405180910390f35b6001602052806000526040600020600091509050806000015490806001018054600181600116156101000203166002900480601f0160208091040260200160405190810160405280929190818152602001828054600181600116156101000203166002900480156101f15780601f106101c6576101008083540402835291602001916101f1565b820191906000526020600020905b8154815290600101906020018083116101d457829003601f168201915b505050505090806002018054600181600116156101000203166002900480601f01602080910402602001604051908101604052809291908181526020018280546001816001161561010002031660029004801561028f5780601f106102645761010080835404028352916020019161028f565b820191906000526020600020905b81548152906001019060200180831161027257829003601f168201915b505050505090806003018054600181600116156101000203166002900480601f01602080910402602001604051908101604052809291908181526020018280546001816001161561010002031660029004801561032d5780601f106103025761010080835404028352916020019161032d565b820191906000526020600020905b81548152906001019060200180831161031057829003601f168201915b5050505050908060040160009054906101000a900460ff16905085565b6040518060a0016040528060005481526020018481526020018381526020018281526020016000151581525060016000805481526020019081526020016000206000820151816000015560208201518160010190805190602001906103b0929190610bfd565b5060408201518160020190805190602001906103cd929190610bfd565b5060608201518160030190805190602001906103ea929190610bfd565b5060808201518160040160006101000a81548160ff0219169083151502179055509050506000808154809291906001019190505550505050565b60608060005460405190808252806020026020018201604052801561046357816020015b610450610c7d565b8152602001906001900390816104485790505b50905060008090505b6000548110156106c357600160008281526020019081526020016000206040518060a001604052908160008201548152602001600182018054600181600116156101000203166002900480601f0160208091040260200160405190810160405280929190818152602001828054600181600116156101000203166002900480156105375780601f1061050c57610100808354040283529160200191610537565b820191906000526020600020905b81548152906001019060200180831161051a57829003601f168201915b50505050508152602001600282018054600181600116156101000203166002900480601f0160208091040260200160405190810160405280929190818152602001828054600181600116156101000203166002900480156105d95780601f106105ae576101008083540402835291602001916105d9565b820191906000526020600020905b8154815290600101906020018083116105bc57829003601f168201915b50505050508152602001600382018054600181600116156101000203166002900480601f01602080910402602001604051908101604052809291908181526020018280546001816001161561010002031660029004801561067b5780601f106106505761010080835404028352916020019161067b565b820191906000526020600020905b81548152906001019060200180831161065e57829003601f168201915b505050505081526020016004820160009054906101000a900460ff1615151515815250508282815181106106ab57fe5b6020026020010181905250808060010191505061046c565b508091505090565b6106d3610cae565b600160008381526020019081526020016000206040518060a001604052908160008201548152602001600182018054600181600116156101000203166002900480601f0160208091040260200160405190810160405280929190818152602001828054600181600116156101000203166002900480156107945780601f1061076957610100808354040283529160200191610794565b820191906000526020600020905b81548152906001019060200180831161077757829003601f168201915b50505050508152602001600282018054600181600116156101000203166002900480601f0160208091040260200160405190810160405280929190818152602001828054600181600116156101000203166002900480156108365780601f1061080b57610100808354040283529160200191610836565b820191906000526020600020905b81548152906001019060200180831161081957829003601f168201915b50505050508152602001600382018054600181600116156101000203166002900480601f0160208091040260200160405190810160405280929190818152602001828054600181600116156101000203166002900480156108d85780601f106108ad576101008083540402835291602001916108d8565b820191906000526020600020905b8154815290600101906020018083116108bb57829003601f168201915b505050505081526020016004820160009054906101000a900460ff1615151515815250509050919050565b61090b610cae565b600160008681526020019081526020016000206040518060a001604052908160008201548152602001600182018054600181600116156101000203166002900480601f0160208091040260200160405190810160405280929190818152602001828054600181600116156101000203166002900480156109cc5780601f106109a1576101008083540402835291602001916109cc565b820191906000526020600020905b8154815290600101906020018083116109af57829003601f168201915b50505050508152602001600282018054600181600116156101000203166002900480601f016020809104026020016040519081016040528092919081815260200182805460018160011615610100020316600290048015610a6e5780601f10610a4357610100808354040283529160200191610a6e565b820191906000526020600020905b815481529060010190602001808311610a5157829003601f168201915b50505050508152602001600382018054600181600116156101000203166002900480601f016020809104026020016040519081016040528092919081815260200182805460018160011615610100020316600290048015610b105780601f10610ae557610100808354040283529160200191610b10565b820191906000526020600020905b815481529060010190602001808311610af357829003601f168201915b505050505081526020016004820160009054906101000a900460ff1615151515815250509050838160200181905250828160400181905250818160800190151590811515815250508060016000878152602001908152602001600020600082015181600001556020820151816001019080519060200190610b92929190610bfd565b506040820151816002019080519060200190610baf929190610bfd565b506060820151816003019080519060200190610bcc929190610bfd565b5060808201518160040160006101000a81548160ff0219169083151502179055509050505050505050565b60005481565b828054600181600116156101000203166002900490600052602060002090601f016020900481019282601f10610c3e57805160ff1916838001178555610c6c565b82800160010185558215610c6c579182015b82811115610c6b578251825591602001919060010190610c50565b5b509050610c799190610cdf565b5090565b6040518060a00160405280600081526020016060815260200160608152602001606081526020016000151581525090565b6040518060a00160405280600081526020016060815260200160608152602001606081526020016000151581525090565b610d0191905b80821115610cfd576000816000905550600101610ce5565b5090565b90565b600081359050610d1381611303565b92915050565b600082601f830112610d2a57600080fd5b8135610d3d610d3882611208565b6111db565b91508082526020830160208301858383011115610d5957600080fd5b610d648382846112b0565b50505092915050565b600081359050610d7c8161131a565b92915050565b600080600060608486031215610d9757600080fd5b600084013567ffffffffffffffff811115610db157600080fd5b610dbd86828701610d19565b935050602084013567ffffffffffffffff811115610dda57600080fd5b610de686828701610d19565b925050604084013567ffffffffffffffff811115610e0357600080fd5b610e0f86828701610d19565b9150509250925092565b600060208284031215610e2b57600080fd5b6000610e3984828501610d6d565b91505092915050565b60008060008060808587031215610e5857600080fd5b6000610e6687828801610d6d565b945050602085013567ffffffffffffffff811115610e8357600080fd5b610e8f87828801610d19565b935050604085013567ffffffffffffffff811115610eac57600080fd5b610eb887828801610d19565b9250506060610ec987828801610d04565b91505092959194509250565b6000610ee18383611072565b905092915050565b6000610ef482611244565b610efe8185611267565b935083602082028501610f1085611234565b8060005b85811015610f4c5784840389528151610f2d8582610ed5565b9450610f388361125a565b925060208a01995050600181019050610f14565b50829750879550505050505092915050565b610f678161129a565b82525050565b610f768161129a565b82525050565b6000610f878261124f565b610f918185611278565b9350610fa18185602086016112bf565b610faa816112f2565b840191505092915050565b6000610fc08261124f565b610fca8185611289565b9350610fda8185602086016112bf565b610fe3816112f2565b840191505092915050565b600060a08301600083015161100660008601826110f6565b506020830151848203602086015261101e8282610f7c565b915050604083015184820360408601526110388282610f7c565b915050606083015184820360608601526110528282610f7c565b91505060808301516110676080860182610f5e565b508091505092915050565b600060a08301600083015161108a60008601826110f6565b50602083015184820360208601526110a28282610f7c565b915050604083015184820360408601526110bc8282610f7c565b915050606083015184820360608601526110d68282610f7c565b91505060808301516110eb6080860182610f5e565b508091505092915050565b6110ff816112a6565b82525050565b61110e816112a6565b82525050565b6000602082019050818103600083015261112e8184610ee9565b905092915050565b600060208201905081810360008301526111508184610fee565b905092915050565b600060208201905061116d6000830184611105565b92915050565b600060a0820190506111886000830188611105565b818103602083015261119a8187610fb5565b905081810360408301526111ae8186610fb5565b905081810360608301526111c28185610fb5565b90506111d16080830184610f6d565b9695505050505050565b6000604051905081810181811067ffffffffffffffff821117156111fe57600080fd5b8060405250919050565b600067ffffffffffffffff82111561121f57600080fd5b601f19601f8301169050602081019050919050565b6000819050602082019050919050565b600081519050919050565b600081519050919050565b6000602082019050919050565b600082825260208201905092915050565b600082825260208201905092915050565b600082825260208201905092915050565b60008115159050919050565b6000819050919050565b82818337600083830152505050565b60005b838110156112dd5780820151818401526020810190506112c2565b838111156112ec576000848401525b50505050565b6000601f19601f8301169050919050565b61130c8161129a565b811461131757600080fd5b50565b611323816112a6565b811461132e57600080fd5b5056fea365627a7a7231582095e22b61de4da07b182cfd915a27b52adefeb27c497e5bf9bd3249c6873c4f9a6c6578706572696d656e74616cf564736f6c63430005100040",
  "source": "pragma experimental ABIEncoderV2;\n\ncontract Todo {\n    uint public todoCount = 1;\n\n    struct TodoItem {\n        uint id;\n        string name;\n        string description;\n        string due_date;\n        bool completed;\n    }\n\n    constructor() public {\n        createTodo(\"Buy milk\", \"Buy milk for the family\", \"2020-01-01\");\n    }\n\n    mapping (\n        uint => TodoItem\n    ) public todos;\n\n    // constructor () public {\n    //     todoCount = 0;\n    // }\n\n    function createTodo(string memory _name, string memory _description, string memory due_date) public {\n        todos[todoCount] = TodoItem({\n            id: todoCount,\n            name: _name,\n            description: _description,\n            due_date: due_date,\n            completed: false\n        });\n        todoCount++;\n    }\n\n    function getTodo(uint _id) public view returns (TodoItem memory) {\n        return todos[_id];\n    }\n\n    function getAllTodos() public view returns (TodoItem[] memory) {\n        TodoItem[] memory items = new TodoItem[](todoCount);\n        for (uint i = 0; i < todoCount; i++) {\n            items[i] = todos[i];\n        }\n        return items;\n    }\n\n    function updateTodo(uint _id, string memory _name, string memory _description, bool _completed) public {\n        TodoItem memory item = todos[_id];\n        item.name = _name;\n        item.description = _description;\n        item.completed = _completed;\n        todos[_id] = item;\n    }\n\n\n}",
  "sourcePath": "/home/Suhan/proj/block_todo/contracts/contracts/Todo.sol",
  "compiler": {
    "name": "solc",
    "version": "0.5.16+commit.9c3226ce.Emscripten.clang"
  },
  "schemaVersion": "3.2.3",
  "updatedAt": "2022-07-16T22:47:28.598Z",
  "networkType": "ethereum",
  "devdoc": {
    "methods": {}
  },
  "userdoc": {
    "methods": {}
  }
}